:020000040800F2
:100000000006002029830008919000081190000844
:1000100069900008119000083D9000082B830008AB
:100020002B8300082B8300082B830008C5D300080E
:100030002B8300082B8300082B8300082B830008E8
:100040002B8300082B8300082B8300082B830008D8
:100050002B8300082B830008CDE40008F9E4000896
:1000600025E5000851E500087DE500082B83000820
:100070002B8300082B8300082B8300082B830008A8
:100080002B8300082B8300082B8300082B83000898
:100090002B8300082B8300082B830008A9E50008A8
:1000A0002B8300082B8300082B8300082B83000878
:1000B0002B8300082B8300082B8300082B83000868
:1000C0002B8300082B8300082B8300082B83000858
:1000D0002B8300082B830008E1B80008F5B800085E
:1000E00011E600082B8300082B8300082B830008EF
:1000F0002B8300082B8300082B8300082B83000828
:100100002B8300082B8300083DE300082B830008A5
:100110002B8300082B8300082B8300082B83000807
:100120002B8300082B8300082B8300082B830008F7
:100130002B8300082B8300082B8300082B830008E7
:100140002B8300082B8300082B830008FDDA0008AE
:100150002B8300082B8300082B8300082B830008C7
:100160002B8300082B8300082B8300082B830008B7
:100170002B8300082B8300082B8300082B830008A7
:100180002B8300082B83000809B900082B83000883
:100190002B8300082B8300082B8300082B83000887
:1001A0002B8300082B8300082B8300082B83000877
:1001B0002B8300082B8300082B8300082B83000867
:1001C0002B8300082B8300082B8300082B83000857
:1001D0002B8300082B8300082B8300082B83000847
:1001E0004ECF4EA5A6B6F7295FC8DD56AC482149CB
:1001F00082B8C4A2F08853678D159175B481B45C40
:10020000CF332D752821A822B27347917F7A17D05A
:100210003EFC84A9A4766B7358E33E8DE330D37E15
:100220008363D3A0A8564A005896DBA5B8CECFFC6E
:100230008C0772719EFAB24D4227090759712B64DF
:10024000034AA19F695D84F2E7C53BDAD6BFB14F8F
:10025000936739EE4F854B5716650E5092EED08E50
:10026000DE1E16045DCFF1FF00000000000000005C
:10027000000000000000000000000000000000007E
:10028000000000000000000000000000000000006E
:10029000000000000000000000000000000000005E
:1002A000000000000000000000000000000000004E
:1002B000000000000000000000000000000000003E
:1002C000000000000000000000000000000000002E
:1002D000000000000000000000000000000000001E
:1002E000000000000000000000000000000000000E
:1002F00000000000000000000000000000000000FE
:1003000000000000000000000000000000000000ED
:1003100000000000000000000000000000000000DD
:10032000000000000000000002E000F000F8FEE71E
:1003300072B63A4880F30888394880F3098839480A
:100340004EF60851CEF20001086040F20000CCF2F7
:1003500000004EF63471CEF200010860BFF34F8FFB
:10036000BFF36F8F40F20000C0F2F0004EF68851EC
:10037000CEF200010860BFF34F8FBFF36F8F4FF0D5
:100380000000E1EE100A4EF63C71CEF2000108606A
:10039000062080F31488BFF36F8F05F093F805F003
:1003A0006FF805F029FF4FF055301F491B4A914265
:1003B0003CBF41F8040BFAE71C49194A91423CBF83
:1003C00041F8040BFAE71A491A4A1B4B9A423EBFFE
:1003D00051F8040B42F8040BF8E700201749184ABB
:1003E00091423CBF41F8040BFAE705F04DF805F0E7
:1003F00057FF144C144DAC4203DA54F8041B8847E1
:10040000F9E700F041F8114C114DAC4203DA54F811
:10041000041B8847F9E705F035B800000006002006
:1004200000220020008000080000002000060020BC
:10043000D0F00008002200204022002040220020AE
:1004400088350020E0810008E0810008E081000894
:10045000E08100082DE9F04F2DED108AC1F80CD095
:10046000C3689D46BDEC108ABDE8F08F002383F37E
:1004700011882846A047002004F028FBFEE704F07E
:1004800063FA00DFFEE7000038B504F06FFF40B10B
:100490001B4B6FF07F01002259720F211A72997263
:1004A000DA7204F049FF054604F082FF044618BBE7
:1004B000144B9D4222D001339D4218BF044641F2A5
:1004C000883504BF0124002500F05EFE20B1032022
:1004D00000F06AF800252C46002004F037FF0CB12C
:1004E00000F078F800F03AFD00F0C8FB284600F074
:1004F000D3F800F06FF8F9E70025E5E70546E3E7F4
:1005000000220020010007B008B500F083FBA0F135
:1005100020035842584108BD07B541F21203022199
:1005200001A8ADF8043000F093FB03B05DF804FBC4
:1005300038B5202383F311881748C3680BB104F042
:100540004BFB164A144800234FF47A7104F008FB61
:10055000002383F31188124C236813B12368013BF5
:100560002360636813B16368013B63600D4D2B78B2
:1005700033B963687BB9022000F06AFC3223636000
:100580002B78032B07D163682BB9022000F060FCA5
:100590004FF47A73636038BD402200203185000833
:1005A0005C23002054220020084B187003280CD82C
:1005B000DFE800F008050208022000F03FBC02203E
:1005C00000F032BC024B00225A60704754220020D7
:1005D0005C23002010B500F0D7FD30B1274B03227B
:1005E0001A70274B00225A6010BD264B264A1C4623
:1005F00019680131F8D004339342F9D16268234B72
:100600009A42F1D9224B9B6803F1006303F58033D2
:100610009A42E9D2002000F04BFB0220FFF7C4FF12
:100620001C4B1A6C00221A64196E1A66196E596CEA
:100630005A64596E5A665A6E5A6942F080025A617B
:100640005A6922F080025A615A691A6942F00052CE
:100650001A611A6922F000521A611B6972B64FF0D2
:10066000E0232021C3F8084DD4E9003281F311883A
:100670009D4683F308881047B6E700BF5422002048
:100680005C2300200000010820000108FFFF000893
:1006900000220020003802402DE9F04F93B0A94B12
:1006A00000902022FF210AA89D6800F001FCA64AC4
:1006B0001378A3B9A5480121C3601170202383F3E7
:1006C0001188C3680BB104F087FAA14A9F48002340
:1006D0004FF47A7104F044FA002383F31188009BED
:1006E00013B19C4B009A1A609B4A009C1378032B11
:1006F0001EBF00231370974A4FF0000A18BF5360C3
:10070000D3465646D146012000F098FB24B1914BC8
:100710001B68002B00F00F82002000F07BFA039092
:10072000039B002BF2DB012000F07EFB039B213BAF
:10073000162BE8D801A252F823F000BF99870008D1
:10074000C187000855880008078700080787000848
:1007500007870008DD880008AB8A0008C589000803
:10076000278A00084F8A0008758A00080787000852
:10077000878A000807870008F98A00083988000876
:10078000078700083D8B0008A58700083988000806
:1007900007870008278A00080220FFF7B5FE002817
:1007A00040F0F381009B0221BAF1000F08BF1C4604
:1007B00005A841F21233ADF8143000F049FAA2E76F
:1007C0004FF47A7000F026FA071EEBDB0220FFF7E9
:1007D0009BFE0028E6D0013F052F00F2D881DFE81C
:1007E00007F0030A0D10133605230593042105A80D
:1007F00000F02EFA17E053480421F9E75748042186
:10080000F6E757480421F3E74FF01C08404600F094
:1008100051FA08F104080590042105A800F018FA1F
:10082000B8F12C0FF2D1012000FA07F747EA0B0BC1
:100830005FFA8BFB4FF0000900F086FB26B10BF04E
:100840000B030B2B08BF0024FFF766FE5BE7454850
:100850000421CDE7002EA5D00BF00B030B2BA1D16B
:100860000220FFF751FE074600289BD0012000F030
:100870001FFA0220FFF798FE00265FFA86F840462E
:1008800000F026FA044688B1404600F031FA0136FD
:100890000028F2D1BA46044641F21213022105A8FB
:1008A000ADF814303E4600F0D3F92CE70120FFF7F5
:1008B0007BFE2546234B9B68AB4207D9284600F0B8
:1008C000F9F9013040F066810435F3E7224B002549
:1008D0001D70204BBA465D603E46ADE7002E3FF4EA
:1008E00061AF0BF00B030B2B7FF45CAF0220FFF723
:1008F0005BFE322000F08EF9B0F10008FFF652AF37
:1009000018F003077FF44EAF0E4A926808EB050318
:1009100093423FF647AFB8F5807F3FF743AF124BA6
:100920000193B84522DD4FF47A7000F073F903901B
:10093000039A002AFFF636AF019B039A03F8012BB6
:100940000137EDE70022002058230020402200203C
:10095000318500085C23002054220020042200205E
:10096000082200200C22002058220020C820FFF777
:10097000CBFD074600283FF415AF1F2D11D8C5F158
:10098000200242450AAB25F0030028BF42468349B6
:100990000192184400F066FA019A8048FF2100F0A5
:1009A00087FA4FEAA8037D490193C8F387022846D6
:1009B00000F086FA064600283FF46EAF019B05EB77
:1009C000830539E70220FFF79FFD00283FF4EAAED8
:1009D00000F0B8F900283FF4E5AE0027B846704BA8
:1009E0009B68BB4218D91F2F11D80A9B01330ED028
:1009F00027F0030312AA134453F8203C0593404602
:100A0000042205A900F046FB04378046E7E7384694
:100A100000F050F90590F2E7CDF81480042105A804
:100A200000F016F908E70023642104A8049300F0FD
:100A300005F900287FF4B6AE0220FFF765FD002817
:100A40003FF4B0AE049800F065F90590E6E70023A6
:100A5000642104A8049300F0F1F800287FF4A2AE0A
:100A60000220FFF751FD00283FF49CAE049800F0EF
:100A700061F9EAE70220FFF747FD00283FF492AE54
:100A800000F070F9E1E70220FFF73EFD00283FF497
:100A900089AE05A9142000F06BF9042107460490E3
:100AA00004A800F0D5F83946B9E7322000F0B2F8D2
:100AB000071EFFF677AEBB077FF474AE384A926824
:100AC00007EB090393423FF66DAE0220FFF71CFDD2
:100AD00000283FF467AE27F003074F44B9453FF4C1
:100AE000ABAE484600F0E6F80421059005A800F0FA
:100AF000AFF809F10409F1E74FF47A70FFF704FD4C
:100B000000283FF44FAE00F01DF9002844D00A9BA6
:100B100001330BD008220AA9002000F0D1F90028E7
:100B20003AD02022FF210AA800F0C2F9FFF7F4FC16
:100B30001C4803F0D1FF13B0BDE8F08F002E3FF446
:100B400031AE0BF00B030B2B7FF42CAE0023642192
:100B500005A8059300F072F8074600287FF422AE3E
:100B60000220FFF7D1FC804600283FF41BAEFFF7C0
:100B7000D3FC41F2883003F0AFFF059800F028FA6B
:100B8000464600F0E1F93C46BDE5064654E64FF026
:100B9000000907E6BA467FE637467DE65822002080
:100BA00000220020A08601002DE9F84F4FF47A734F
:100BB000DFF85880DFF8589006460D4602FB03F731
:100BC000002498F900305A1C5FFA84FA01D0A3423D
:100BD00010D159F8240003682A46D3F820B03146D2
:100BE0003B46D847854205D1074B012083F800A03A
:100BF000BDE8F88F0134042CE3D14FF4FA7003F010
:100C00006BFF0020F4E700BFA42300201022002087
:100C1000D4E7000807B50023024601210DF10700C3
:100C20008DF80730FFF7C0FF20B19DF8070003B033
:100C30005DF804FB4FF0FF30F9E700000A4608B505
:100C40000421FFF7B1FF80F00100C0B2404208BDAF
:100C500030B4074B0A461978064B53F821402368F5
:100C6000DD69054B0146AC46204630BC604700BFFD
:100C7000A4230020D4E70008A086010070B504F08A
:100C8000DBF9094E094D30800024286833888342FF
:100C900008D904F0CBF92B6804440133B4F5004FB4
:100CA0002B60F2D370BD00BFA62300206423002078
:100CB00004F08ABA00F1006000F500400068704757
:100CC00000F10060920000F5004004F009BA000055
:100CD000054B1A68054B1B889B1A834202D91044A6
:100CE00004F0A4B90020704764230020A62300204C
:100CF00038B5074D04462868204404F09FF928B908
:100D000028682044BDE8384004F0B0B938BD00BFC1
:100D10006423002010F003030AD1B0F5047F05D24C
:100D200000F10050A0F51040D0F800381846704788
:100D30000023FBE700F10050A0F51040D0F8100AA6
:100D400070470000064991F8243033B10023086A47
:100D500081F824300822FFF7B3BF0120704700BF9D
:100D600068230020014B1868704700BF002004E092
:100D700070B52A4B1B68C3F30B0204461B0C62B10F
:100D800040F21340824230D040F2194082422ED0CD
:100D900040F2214082422CD10322214D0C2000FB45
:100DA0000252556842F20102934224D0B3F5805FAB
:100DB00023D041F20102934221D041F20302934237
:100DC0001FD041F20702934214BF3F233123013C5D
:100DD0000C44013D0A46A24215D215F9016F501C80
:100DE0009EB100F8016C0246F5E70122D5E7022228
:100DF000D3E70C4DD6E73323E9E74123E7E75A234E
:100E0000E5E75923E3E7104605E02C2584421570F9
:100E100001D9901C5370401A70BD00BF002004E03F
:100E2000A4E7000878E70008022802BF024B4FF44D
:100E300080529A61704700BF00100240022802BF32
:100E4000024B4FF080529A61704700BF0010024081
:100E5000022801BF024A536983F4805353617047EB
:100E60000010024010B50023934203D0CC5CC45460
:100E70000133F9E710BD000010B5013810F9013F4A
:100E80003BB191F900409C4203D11AB10131013AC2
:100E9000F4E71AB191F90020981A10BD1046FCE74A
:100EA00003460246D01A12F9011B0029FAD17047F5
:100EB00002440346934202D003F8011BFAE770474D
:100EC0002DE9F8431F4D144695F82420074688461F
:100ED00052BBDFF870909CB395F824302BB92022D8
:100EE000FF2148462F62FFF7E3FF95F82400C0F189
:100EF0000802A24228BF2246D6B24146920005EB24
:100F00008000FFF7AFFF95F82430A41B1E44F6B213
:100F1000082E17449044E4B285F82460DBD1FFF733
:100F200011FF0028D7D108E02B6A03EB820383422C
:100F3000CFD0FFF707FF0028CBD10020BDE8F88312
:100F40000120FBE768230020024B1A78024B1A703D
:100F5000704700BFA423002010220020F8B5164CD3
:100F60001648174E174D154F02F0F6FF214613484D
:100F700003F01EF824681448626D936B23F4002379
:100F8000936303F0A9FD2046104903F017F9626D41
:100F9000936B43F4002393634FF4E13333600424F1
:100FA00055F8040BB84202D0314602F035FF013C3F
:100FB00014F0FF04F4D1F8BD9CEE0008B02C002022
:100FC00090230020D4E7000840420F00A4EE000860
:100FD00038B50B4B1A780B4B53F822500A4B9D42F5
:100FE00004460CD0094B002118461422FFF760FF7D
:100FF000046001462846BDE8384002F00DBF38BD08
:10100000A4230020D4E70008B02C00209023002067
:1010100000B59BB0EFF3098168226846FFF722FF15
:10102000EFF30583044B9A6BDA6A9A6A9A6A9A6AB2
:101030009A6A9A6A9B6AFEE700ED00E000B59BB0F1
:10104000EFF3098168226846FFF70CFFEFF3058391
:10105000044B9A6B9A6A9A6A9A6A9A6A9A6A9B6A23
:10106000FEE700BF00ED00E000B59BB0EFF30981A3
:1010700068226846FFF7F6FEEFF30583034B5A6BD1
:101080009A6A9A6A9A6A9A6A9B6AFEE700ED00E099
:10109000FEE7000030B5094D0A4491420DD011F829
:1010A000013B5840082340F30004013B2C4013F05F
:1010B000FF0384EA5000F6D1EFE730BD2083B8ED9E
:1010C00030B5002489B01C22214601A80094FFF706
:1010D000EFFE084D20226946281905F013FB30B9B0
:1010E0002034B4F5A07FF5D1012009B030BD002037
:1010F000FBE700BFE88100082DE9F047D8B00446BF
:101100000D4616461F46FFF7DBFF90BBA369482B31
:1011100031D11A48082204F11C0105F0F3FA50BB42
:10112000DFF85C80DFF85C9082464FF4B0720021FB
:101130006846FFF7BDFE08EB0A0204F12401684689
:1011400002F0F0F92A464946684602F0F1F968468D
:101150003A46314602F0ECF9684602F0EBF928B164
:101160000AF1200ABAF5A07FDFD1122058B0BDE8FD
:10117000F0870020FAE71120F8E700BFF8E7000841
:10118000E8810008000001082DE9F3413E4A10689B
:1011900051686B4603C36A463C493D48082305F045
:1011A000C1FA0446002837D10A24FFF789FF002836
:1011B00066D0384A106851686B4603C36A463649A0
:1011C0003348082305F0AEFA0546002858D00369D5
:1011D000B3F5FC1F54D8428B092A51D102F1784251
:1011E000A2F10112024402F110018B4248D3103BDC
:1011F000274900209E1AFFF74DFF3246074605F1AA
:1012000018010020FFF746FFAB689F4238D1EB681A
:10121000984208BF002433E00369B3F5FC1F01D9ED
:101220000B24C2E7B0F86620092A01D00C24BCE7E1
:101230001A4E064406F15C02934201D21024B4E730
:101240005C3B134900F16407324600209D1BFFF709
:1012500021FF2A46804639460020FFF71BFFA3687E
:10126000984501D00D24A0E7E3689842FAD12046C2
:101270002B463A463146FFF73FFF0446002894D1FB
:10128000204602B0BDE8F081E4E70008907F1F002F
:1012900000000108EDE70008DC7F1F000800FFF7F1
:1012A0008378427800781B0443EA0223184370478E
:1012B0000068704708B50246FFF7FAFF0346101DA5
:1012C000FFF7F6FF0146184608BD00000B0A017043
:1012D00043700B0C090E8370C170704708B501EBA9
:1012E0008202031F0846FFF7E3FF0431914243F8EF
:1012F000040FF7D108BD000010B500EB82020C1FEF
:1013000054F8041FFFF7E2FF04309042F8D110BDFB
:101310002DE9F04188460546FFF7CCFF06464046DA
:101320000C46FFF7C7FF464005F108004C40FFF7A9
:10133000C1FF074608F108000D46FFF7BBFF7840E4
:10134000694030432143BDE8F0810000F8B506460E
:101350000F46FFF7DDFF05460C4606F1100007F1CA
:101360001001FFF7D5FF28432143F8BD2DE9F04FC9
:10137000B7B003681A9343681B9383681C93C368D0
:101380001D9303691E9343691F9383692093C36967
:101390002193036A2293436A2393D0E910232E4CAE
:1013A0002E4D2F4FDFF8E4B02E4EDFF8E4E0DFF8EB
:1013B000E4C0624005922C4A2C4C53400693836A49
:1013C0002493C36A2593D0E9122362400D92284AE0
:1013D00053400E93C1F1000A036B26492693436BD9
:1013E000279381EAEA731793836B2893224AC36B8E
:1013F00029930092289A1192299A20991292269A5A
:1014000007921891279A219908921991249A1E9966
:1014100003921591259A1F9904921691DDE92242B3
:101420001C990F911D9910911A9909911B990A9174
:101430001249CDE9015101F14F7101F5D341583104
:1014400013910F4914910F49CDE90B710E4F8AEAA0
:101450000B0B00F150031FE0D182E6AD79217E1322
:101460002BF894FE85AE67BB7F520E511F6C3E2B4E
:101470008C68059BABD9831F98EC000819CDE05B05
:101480003AF54FA572F36E3C3BA7CA846BBD41FB96
:1014900008C9BCF367E6096A0099097803EBC1053E
:1014A00053F831106D68611842EB0508099D491920
:1014B0000A9D45EB0808059D81EA0509069D88EA15
:1014C000050A1AEB0E0E4CEB090C8EEA04048CEAAA
:1014D0000202250E45EA0225120E42EA0422009C71
:1014E0000992647803EBC40253F834405268091936
:1014F00048EB02084A190592099A48EB0202069243
:10150000059A82EA0A0A069A4FEA1A4182EA09090A
:1015100041EA09424FEA1949349249EA0A423592AE
:10152000349A09991EEB02022A92359A4CEB020278
:101530002B922A9A55402B9A51400A46490041EA7B
:10154000D5716D0045EAD2723292009A3391927849
:1015500003EBC20153F832204968039C0D9DA21889
:10156000049C44EB010E0F9912EB010A1099009AAA
:1015700041EB0E0E0E998EEA0108039918EB07074E
:1015800085EA0A0546EB050687EA010C74404FEA36
:101590001C6141EA0421240E44EA0C2492F803C0A1
:1015A00003EBCC0953F83CC0D9F804901AEB0C02B9
:1015B0004EEB090E52180D924EEB04020E920D9A4C
:1015C00082EA08080E9A55404FEA184242EA05425C
:1015D0002D0C309245EA08423192309ABA182C927A
:1015E000319A46EB02022D922C9A51402D9A54408A
:1015F000620042EAD1724900099241EAD47204922F
:10160000009A127903EBC20153F832204D68079912
:101610008A18089941EB05051599521816990392F5
:1016200041EB0505179985EA010A0B991AEB0106AA
:101630000C9982EA0B0441EB040B0799009A86EAA5
:10164000010C089992F805E0039A53F83E808BEA62
:1016500001074FEA1C6141EA07213F0E47EA0C27C8
:1016600003EBCE0C12EB0802DCF8049045EB090505
:101670005218159245EB07021692159A82EA0A0A49
:10168000169A4FEA1A49544049EA0442240C2E9211
:1016900044EA0A422F922E9A119CB6182F9A4BEBCD
:1016A000020B8BEA070771407A0042EAD1724900C7
:1016B000089241EAD7720792009A917903EBC1022E
:1016C00053F8311052686118129C44EB0208189AC2
:1016D0008918199A42EB0808019A029C129F88EA1D
:1016E000040E139C1EEB0405149C82EA010244EBD9
:1016F0000209119C6C4089EA070C270E47EA0C2767
:101700004FEA1C6C4CEA042C009CE47903EBC40AFD
:1017100053F83440DAF804A0091948EB0A08C9194B
:10172000179148EB0C0118911799059C81EA0E0E50
:1017300018994FEA1E4A4A404AEA024A120C15EB2F
:101740000A0542EA0E4E49EB0E0989EA0C0C6F407D
:101750004FEA4C0848EAD7727F00129247EADC72DF
:101760001192009A117A03EBC10253F831105268BA
:101770006118069C44EB0208049A8918099A48EB00
:10178000020888EA0E0E049A1EEB060686EA020498
:1017900081EA0A0A099A4BEB0A0B8BEA0202270E2E
:1017A00047EA02274FEA126C009A527A4CEA042C5C
:1017B00003EBC20453F832206468891848EB04082C
:1017C000CA19099248EB0C020A92099A8EEA020E93
:1017D0000A9A8AEA020A4FEA1E4242EA0A424FEA9B
:1017E0001A4A01924AEA0E420292019A92190B9207
:1017F000029A42EB0B020C920B9A57400C9A8CEA1D
:10180000020C4FEA4C0444EAD7727F00049247EA84
:10181000DC720392009A359C927A03EBC20153F872
:1018200032204E680D998A180E9941EB06060799E9
:1018300012EB01080899009A46EB010686EA040AB1
:101840003499079C1AEB050585EA040C88EA010126
:10185000089C49EB010989EA04074FEA1C6444EA41
:1018600007243F0E47EA0C2792F80BC003EBCC0E7F
:1018700053F83CC0DEF804E018EB0C0246EB0E0611
:1018800012190F9246EB070210920F9A8AEA020A87
:10189000109A51404FEA1A4242EA0142090C05925D
:1018A00041EA0A420692059A52191392069A42EBAD
:1018B00009021492139A5440149A57407A0042EA4B
:1018C000D4726400089244EAD7720792009A127B9D
:1018D00003EBC20153F832204D6815998A18169906
:1018E00041EB0505119912EB010A1299009A45EB9B
:1018F000010530998AEA0106319985EA01072A999A
:1019000011EB070E2B9941EB060C11998EEA01049D
:1019100012998CEA0108210E41EA08214FEA186861
:1019200048EA042492F80D8003EBC80953F8388084
:10193000D9F804901AEB080245EB090552181592E4
:1019400045EB04021692159A5740169A56403A0CE7
:1019500042EA0642360C0D9246EA07420E920D9A72
:1019600012EB0E0E0E9A42EB0C0C84EA0C044FEABA
:10197000440A81EA0E014AEAD1724900129241EA10
:10198000D4721192009A179C917B03EBC10253F819
:10199000311052686118189C44EB0208329A009C7E
:1019A0008918339AE47B48EB02082E9A81EA0209EF
:1019B0002F9A88EA020A2C9A12EB0A072D9A42EB18
:1019C0000906329A87EA020B339A4FEA1B65724086
:1019D00045EA0225120E42EA0B2203EBC40B53F830
:1019E0003440DBF804B0091948EB0B084919189189
:1019F00048EB0201199118998AEA010A199989EAB2
:101A000001094FEA1A4141EA094B4FEA194949EAEB
:101A10000A411BEB070741EB0606179182EA060114
:101A20007D404A0042EAD5726D0045EAD1740099C2
:101A300010310091009D3949A9427FF42DAD099BD9
:101A40000C9D83EA0E010A9B83EA0C081A9B5940FD
:101A50001B9B88EA0303C0E900130F9B13997B408B
:101A60001F46109B73401E461C9B5F401D9B5E40A3
:101A7000C0E90276159B0B9E5E40169B5D401E9B47
:101A80005E401F9B5D40189BC0E904655940199D4D
:101A9000149B83EA0508209B5940219B88EA030395
:101AA000C0E90613059B83EA0409069B83EA020A40
:101AB000229B89EA0304239B8AEA0302C0E90842C5
:101AC000039B0D9A049C129983EA020C0E9B259AA3
:101AD0005C40249B54408CEA0303C0E90A34079B12
:101AE000179A83EA0B04089B83EA020A269B5C4050
:101AF000279B8AEA0302C0E90C42119B019A5A40D3
:101B0000029B83EA010A289B5A40299B8AEA030325
:101B1000C0E90E2337B0BDE8F08F00BF58ED0008D4
:101B200070B505460E46144622B980222146503033
:101B3000FFF7BEF924F00700E40004F03804A4F134
:101B40002003C4F12002284406FA03F326FA02F225
:101B5000134306FA04F4D0E9146234431343C0E992
:101B6000144370BD28220021FFF7A2B9012340F8D9
:101B7000043B24220021FFF79BB90000002351F809
:101B8000232040F8232001330A2BF8D170470000AE
:101B9000002351F82320524240F8232001330A2B1E
:101BA000F7D1704730B5002351F8234052F8235045
:101BB0002C4440F8234001330A2BF5D130BD0000FE
:101BC00030B5002351F8234052F82350641B40F8ED
:101BD000234001330A2BF5D130BD000030B552420D
:101BE000041F0439243054F8045F51F8043F6B405B
:101BF00013406B4084422360F5D130BD2DE9F04F96
:101C000004468BB00846FFF753FB0190081DFFF711
:101C100047FB8301C81D0093FFF742FB4FEA401AC0
:101C200001F10A00FFF73CFB4FEAC00B01F10D0088
:101C3000FFF736FB860001F11000FFF739FB814604
:101C400001F11400FFF72CFB4FEAC01801F1170057
:101C5000FFF726FB470101F11A00FFF721FB030103
:101C600001F11D000493FFF71BFB019A6F4B002548
:101C700003EA800312F1007005934FEA906045F18A
:101C8000000340EA83108106521A4FEA901C069224
:101C90006CEB4C020792009A9B16101843F100025D
:101CA00016F1007C45F100014FEA9C6C4CEA811C66
:101CB0004FEA8C634FEA9C15F31A65EB45068916CB
:101CC00019EB0C0941F1000110F1807C42F1000593
:101CD0004FEA5C6C4CEAC51C1AEB0C0A4FEA6565CE
:101CE000A0EB4C6245F1000519F1807008924FEAB3
:101CF000506041F1000240EAC210A9EB4061099135
:101D0000521618EB0001009142F100021AF1007125
:101D100045F10005890E41EA85111BEB0100019098
:101D200000984FEAA56545F1000510F1007042F1F9
:101D30000002800E40EA82103F180297019F4FEA8E
:101D4000A26242F1000217F1807E45F100054FEAE0
:101D50005E6E4EEAC51E029D13EB0E0346F10006B1
:101D600015F1807742F10002049D03937F0E47EA4C
:101D7000C217ED194FEA626242F1000213F1007CD2
:101D800046F100064FEA9C6C4CEA861C15F1007681
:101D9000049542F10002059D069BB60E46EA8216A6
:101DA00015EB06094FEAA26242F1000219F18075B3
:101DB00042F100026D0E45EAC2154FF0130BA5FB70
:101DC0000B2BD218079B4BEB030B12F100784BF156
:101DD000000B4FEA9868089B48EA8B18A2EB8862D0
:101DE000226013EB08026260AAEB8162A260019B91
:101DF000A3EB4E61039BE160A3EB8C632361099B22
:101E000013EB0C036361009BA3EB8063A361029B54
:101E1000A3EB4760049BE061A3EB8666A9EB4565F5
:101E2000266265620BB0BDE8F08F00BFFCFFFF01CA
:101E30002DE9F04F0D680C6982FB055C15F1007708
:101E40004CF1000ABF0E47EA8A178BB04FEAAA6826
:101E5000BB060AF07C4A82FB0446EB1A4AEA971A50
:101E600006936CEB0A0314F1007C4D68079346F16E
:101E7000000E4FEA9C6C4CEA8E1CC2FB05784FEAC0
:101E80008C634D694FEAAE6A0EF07C4EE41A4EEA5E
:101E90009C1E66EB0E0EC2FB05CA17F1807548F159
:101EA00000086D0E45EAC815A7EB456608961CF1BB
:101EB00080768F684AF1000A760E46EACA164FEA23
:101EC0006863C2FB0753ACEB466715F100790997CD
:101ED0008F6943F100034FEA6A6A4FEA9969C2FBCE
:101EE000076A49EA8319CF6801969B164E46C2FBE2
:101EF00007630296019ECF6916F1007C4AF1000A41
:101F00004FEA9C6C4CEA8A1C66464FEAAA6AC2FBFE
:101F1000076A0396029E16F1807843F100034FEAA8
:101F2000586848EAC31814EB08044EEB6366039B39
:101F300013F180774AF1000A7F0E0B6A496A47EA7B
:101F4000CA17BE464FEA6A6AC2FB03EACDF810E040
:101F500014F1007E46F100034FEA9E6E4EEA831EA6
:101F6000049B13F100764AF10003B60E46EA83168D
:101F7000B2469B16C2FB01A31AF1807143F1000324
:101F8000490E41EAC3114FF0130BCDF814A05B16B4
:101F9000A1FB0B2A0BFB03AA069BD218079B4AEB5B
:101FA000030A12F100734AF1000A9B0E43EA8A13F6
:101FB000A2EB83620260089AD3184360029BA5EBF0
:101FC0008965A3EB4863A4EB8E64C36085600461FC
:101FD000099B13EB0E034361019BA3EB8C638361AD
:101FE000039BA3EB4767049BC761A3EB8666059B36
:101FF0000662A3EB416141620BB0BDE8F08F0000C7
:102000002DE9F04FD1E90053A5B0D2E9008408933F
:102010008B680193CB680993D1E904C30A93D1E992
:1020200006730B93D1E908630C9393680293D3680A
:1020300004931369069353690D9393690F93D369BE
:102040001693136A1893536A1993089B5B001093B5
:10205000099B5B0011930A9B5B0012930B9B5B0037
:1020600013930C9B5B001493029B4FF0130E0EFB1B
:1020700003F31A93049B0EFB03FB069B0EFB03F377
:1020800017930D9B0EFB03F315930F9B0EFB03F3AE
:102090000E93169B0EFB03F30793189B0EFB03F3A3
:1020A0000593199B0EFB03F30393039A109B83FB89
:1020B000021A019B1A46059BC5FB081AC2FB031AAC
:1020C000119B1A46079BC2FB031A0E9BCCFB031AFB
:1020D000129B1A46159BC2FB031A179B039AC7FB58
:1020E000031A139BC3FB0B1A1A9BC6FB031A149B00
:1020F00081460EFB04F0C3FB001A089B1B9188FB72
:1021000003300199C5FB0430C2FB013005990A4632
:102110000999C2FB01300799C1FB0C300E990A46A0
:102120000A99C2FB01301599C1FB073017990A467D
:102130000B99C2FB0130CBFB06301A9902460C9872
:10214000C1FB00321A93109B02991C9283FB04304E
:10215000C5FB01300199039AC8FB01301199C2FBFC
:1021600001300599C1FB0C3007990A461299C2FB50
:1021700001300E99C1FB073015990A461399C2FB2D
:1021800001301799C1FB06301499CBFB0130CDE922
:102190001D300299089B83FB01B0049B0A99C5FB83
:1021A00003B0019BC3FB04B0099BC8FB03B0039BB6
:1021B000C3FB0CB0059BC3FB01B0079B0B99C3FB92
:1021C00007B00E9BC3FB01B017990C9BC2FB06B076
:1021D000C1FB03B0109B049920900698CDF87CB009
:1021E00083FB0131C5FB0031019802460298C2FB16
:1021F00000311198039AC0FB04311298C8FB0C31CE
:10220000C2FB00310598C0FB0731079802461398BE
:10221000C2FB00310E98C0FB063115980246149897
:10222000C2FB003115930698089B0D9A179183FB0A
:102230000003C5FB0203019A9346049ACBFB0203F9
:10224000099A9346029ACBFB02030A9ACCFB040339
:10225000C8FB0203039AC2FB0703059A93460B9A35
:10226000CBFB0203079AC2FB06030E9A93460C9A15
:10227000CBFB020321930D9A109B0E9083FB02036C
:102280000F9AC5FB0203019A9346069ACBFB020301
:10229000119A9346049ACBFB0203029ACCFB0203E9
:1022A000129AC2FB0403139A0399C8FB0703C1FBEC
:1022B0000203059AC2FB0603079A9346149ACBFBC6
:1022C000020322930F9A089B079083FB0203169A3E
:1022D000C5FB0203019A93460D9ACBFB0203099AB0
:1022E0009346069ACBFB0203049ACCFB02030A9A9C
:1022F0009346029ACBFB02030B9AC7FB0403C8FB6D
:102300000203059A93460C9AC1FB0603CBFB02031A
:102310002393169A109B059083FB0203189AC5FB22
:102320000203019A93460F9ACBFB0203119A93463C
:102330000D9ACBFB0203069ACCFB0203129A93463A
:10234000049ACBFB0203029AC7FB0203139AC2FB57
:102350000403149AC8FB0603C1FB02031193189AE5
:10236000089B10901998179983FB0232C5FB003225
:1023700015460198169AC0FB0235099A0F98C2FBC0
:1023800000350D9A0698CCFB02350A9AC2FB00353F
:10239000049A0298C7FB02350B9A159FC2FB0035C1
:1023A000C6FB04350C981B9C2A46C8FB00320693DA
:1023B0001B9B089213F100764AF10000B60E46EA24
:1023C000801600F07C43B206A21A43EA96136AEB29
:1023D00003030A931A9B09929E191C9B43EBA0606E
:1023E000159B13F10075179B4FEA956543F10003A8
:1023F00045EA831503F07C44AA06BA1A44EA951408
:1024000061EB04010E9C6519219C44EBA36316F15A
:10241000807440F10000640E44EAC014A6EB4466E8
:102420000B961D9E341901941E9C44EB606015F1BF
:10243000807443F10003640E44EAC314A5EB4465C1
:102440000C95079D2C190294229C44EB6363019C1C
:1024500014F1007440F100004FEA94681F9C48EAB0
:10246000801814EB080B209C44EBA060029C14F134
:10247000007643F10003059CB60E46EA831614EB82
:10248000060A239C44EBA3631BF1807C40F100000F
:102490004FEA5C6C4CEAC01C12EB0C0241EB606131
:1024A0001AF180751098039243F100036D0E45EA0E
:1024B000C31540190490119840EB636312F1007743
:1024C00041F10001BF0E47EA8117049911F1007430
:1024D00043F100030699A40E44EA831409190591F7
:1024E000089941EBA363059911F1807043F1000352
:1024F000400E40EAC310A0FB0E125B160EFB032336
:10250000099A89180A9A43EB020311F1007E43F1FC
:1025100000034FEA9E6E4EEA831E0B9B13EB0E03E5
:10252000C9F80430019BA3EB8863C9F80830ABEB12
:102530004C63C9F80C30039BA1EB8E61A3EB87625F
:10254000C9F80010C9F810200C9BDF19029BC9F8CC
:102550001470A3EB8666049BC9F81860A3EB84642F
:10256000059BC9F82040AAEB4565A3EB4060C9F87C
:102570001C50C9F8240025B0BDE8F08F2DE9F04FBC
:10258000D1E9026295B082460892D1E904720392C1
:10259000D1E9065204920A6A05924A6A09927200C7
:1025A0000692089A52000192039A52000292049AEB
:1025B000D1E90030520013210A9201FB05F20B927F
:1025C000049A4FF0260808FB02F20792059A01FBD5
:1025D00002F9099A03994FEA400B08FB02F208FB43
:1025E00001F88BFB021C4FEA430EC3FB031C730074
:1025F000C3FB091C019B1C46079BC4FB031C0B9CD3
:102600007B00C3FB041C039BC3FB081C0C9182FBD7
:1026100006380199CEFB0038C9FB01380799C1FB88
:10262000073802990C460B99C1FB04380D938BFBBC
:1026300000310198CEFB0631C2FB00317800C9FBA6
:102640000031079804460298C4FB00310B98C0FB88
:10265000053108980E910B938BFB0631CEFB0031B0
:102660000298C2FB0731C9FB0031C4FB0531CDE93B
:102670000F31019B02998BFB0334CEFB0734C6FB61
:1026800006346800C2FB0134C9FB00340799049882
:10269000C1FB00340793039B08988BFB0716C3FB11
:1026A0000E16069BC3FB0016C2FB05160A980B46C6
:1026B0003146C9FB0031CDE91131029B8BFB031080
:1026C000069BCEFB0510C3FB0710019B1E46089B13
:1026D000C6FB03100A9BC2FB0310059B0E46C9FBF9
:1026E00003600896049E8BFB0513CEFB0613069E23
:1026F000B146039EC9FB0613019EC6FB0713059E48
:102700008946C2FB069313930A9B0699CDF80C9059
:102710008BFB0393CEFB0693C1FB0593DDE901160A
:10272000C1FB06930999C7FB0793C2FB01930A9368
:10273000059B0E468BFB0312CEFB0612069B049EE6
:10274000C3FB0612019BC3FB0512029D0E461346F6
:10275000C7FB056306930C9B0C9D059613F1007E49
:102760004CF100014FEA9E6E4EEA811E4FEA8E62E6
:1027700001F07C43AD1A43EA9E136CEB03030C9308
:102780000D9B099513EB0E0E079B079D48EBA16867
:1027900013F1007C44F100034FEA9C6C4CEA831C6B
:1027A00003F07C414FEA8C62AA1A41EA9C1164EB67
:1027B0000104119911EB0C0C129941EBA3631EF16A
:1027C000807648F10001760E46EAC116AEEB46650A
:1027D00007950B9DAD1901950E9D45EB61611CF1AF
:1027E000807E43F100064FEA5E6343EAC613ACEB1A
:1027F00043650B95089DEB18029340EB66630198C7
:1028000010F1007641F100010F984FEA966848EA0E
:10281000811810EB080B109840EBA161029810F1A1
:10282000007643F10000B60E039B46EA80169B1922
:102830000393139B43EBA0631BF1807C41F10000E9
:102840004FEA5C6C4CEAC01C12EB0C0244EB60617A
:102850000398049210F1807543F100036D0E0A98FD
:1028600045EAC31519EB050940EB636312F10077E4
:1028700041F10001BF0E19F1007447EA811743F1DD
:1028800000030599A40E44EA8314091905910699D9
:1028900041EBA363059911F1807043F10003400EF1
:1028A00040EAC3101322A0FB021E5B1602FB03E3E7
:1028B000099A89180C9A43EB020311F1007E43F147
:1028C00000034FEA9E6E4EEA831E079B13EB0E0336
:1028D000CAF80430019BA3EB8863CAF80830ABEB5D
:1028E0004C63CAF80C30049BA3EB87620B9BCAF8BD
:1028F0001020DF19A1EB8E61CAF80010CAF814701D
:10290000029BA3EB8666039BCAF81860A3EB4565A0
:10291000059BCAF81C50A9EB8464A3EB4060CAF87D
:102920002040CAF8240015B0BDE8F08F0029A1BFEF
:10293000CB1001F00701C05C40FA01F1ACBF01F01F
:10294000010000207047000070B50A4E041F00F11E
:102950001C020025012056F8041B54F8043FC9430B
:102960005B1845EB05011B1841F10000A242F2D1B2
:1029700070BD00BF00E80008F8B5064608460D46E1
:10298000FFF7E2FF0024DFF838C00246C117C0F1AC
:10299000000E20465CF8043B55F824702EEA030331
:1029A000DB1940EB00079B1846F8243004F10104C2
:1029B00041EB0702082C4FF00001EBD1F8BD00BF3E
:1029C00000E8000810B50446FFF7CCF804F1280031
:1029D000FFF7CCF804F15000FFF7C8F804F17800D5
:1029E000BDE81040FFF7BEB838B50A460C4628319E
:1029F000FFF7D8F805462830FFF7E2F804F1500158
:102A000005F15000FFF7BAF804F1780105F17800FC
:102A1000024ABDE83840FFF7F3BA00BF48E80008B3
:102A20002DE9F04395B0044616460D460A46684621
:102A30002831FFF7B7F80AA8FFF7C2F8324669460F
:102A40006846FFF7DDFA0AA904F1280806F1280212
:102A50000846FFF7D5FA0AAA69464046FFF7A2F8EA
:102A60002046FFF7ADF804F1500705F15002384653
:102A70001146FFF797F804F1780906F1500239463C
:102A8000FFF7BEFA06F1780205F178014846FFF734
:102A9000B7FA4A4639466846FFF784F80AA8FFF7AE
:102AA0008FF8424621464846FFF7AAFA0AAA21466D
:102AB0002046FFF7A5FA6A4641464046FFF7A0FACE
:102AC0000AAA69463846FFF79BFA15B0BDE8F083BD
:102AD0002DE9F84F0A9E0546904618460F460A46CD
:102AE00028311C46FFF75EF83046FFF769F842468A
:102AF00021462046FFF784FA05F1280A08F128024A
:102B000031463046FFF77CFA324621465046FFF701
:102B100049F82846FFF754F805F1500907F150022B
:102B200005F1780B11464846FFF73CF808F15002D2
:102B300007F178015846FFF763FA5A46494620469E
:102B4000FFF730F83046FFF73BF852462946584623
:102B5000FFF756FA324629462846FFF751FA224631
:102B600051465046FFF74CFA324621464846BDE8EA
:102B7000F84FFFF745BA00002DE9F04714468946A3
:102B800004F12808074609F1280A104604F1500507
:102B9000FFF7F4FC51464046FFF7F0FC09F1500105
:102BA000284604F17806FFF7E9FC29462846022268
:102BB000FFF73EF952464946304607F17809FEF7DD
:102BC000F1FF31464846FFF7D9FC224641463046E0
:102BD000FEF7E8FF4046FEF7F3FF3246494620463F
:102BE000FEF7EEFF424629462846FEF7E9FF2A4651
:102BF00021463846FFF704FA4246314607F12800DD
:102C0000FFF7FEF92A46414607F15000FFF7F8F9B1
:102C1000324621464846BDE8F047FFF7F1B90000CB
:102C200038B5FC2204460D4611462846FFF77EFEC5
:102C300008B9013AF8D14FF6FF730132E2702380F0
:102C4000A37038BD2DE9F84F9846C37893420546E6
:102C50000E460CD111464046FFF768FE571E04464B
:102C600039464046FFF762FE844209D1EF70B5F95C
:102C7000003093420CBF95F902000020BDE8F88FA8
:102C8000511C8E42A8BF0E4606F1FF3A04FA0AF420
:102C9000971B6442BB464FF00009CA450BF1010B7C
:102CA00009DD59464046FFF741FE00FA09F00444A9
:102CB00009F10109F1E739464046FFF737FE0444C0
:102CC0006342234013F0AA0F14BF0120002013F029
:102CD000CC0118BF022113F0F00340EA010018BF35
:102CE0000423511C03438E1B1E4444FA03F32E801D
:102CF000AB70BBE7D0E9103210B5D0F8D0401B194B
:102D000052F100024FF0000128BF0121C0E910324A
:102D100031B1D0E91232013342F10002C0E912327E
:102D200010BD000070B50D46A0F1080600F1780452
:102D30002846FEF7BFFAE6E90201A64205F10805BA
:102D4000F6D170BDF8B504460D468E180027B54281
:102D500018D0D4F8D030802B07D12046FFF7CAFF17
:102D60000021FEF703FBC4F8D070D4F8D02015F88A
:102D7000011B2046FEF7D4FED4F8D0300133C4F84E
:102D8000D030E4E7F8BD000008B5FEF7DFFA0843ED
:102D9000B0FA80F04009013808BD000000231A464F
:102DA0008B4202D0C2540133FAE7704770B59EB02F
:102DB000054668460C46FFF7E1FB69460AA8FFF79F
:102DC000DDFB0AA90846FFF7D9FB0AAA10462146EF
:102DD000FFF716F90AAA69466846FFF711F969462E
:102DE0006846FFF7CBFB6A460AA96846FFF708F971
:102DF00069460AA8FFF7C2FB04260AA90846FFF79E
:102E0000BDFB013EF9D16A460AA96846FFF7F8F80A
:102E100069460AA8FFF7B2FB09260AA90846FFF788
:102E2000ADFB013EF9D10AA908466A46FFF7E8F86A
:102E30000AA914A8FFF7A2FB132614A90846FFF756
:102E40009DFB013EF9D10AAA104614A9FFF7D8F854
:102E50000AA90846FFF792FB09260AA90846FFF7C8
:102E60008DFB013EF9D16A460AA96846FFF7C8F80A
:102E700069460AA8FFF782FB31260AA90846FFF730
:102E80007DFB013EF9D10AA908466A46FFF7B8F86A
:102E90000AA914A8FFF772FB632614A90846FFF7D6
:102EA0006DFB013EF9D10AAA104614A9FFF7A8F854
:102EB0000AA90846FFF762FB31260AA90846FFF770
:102EC0005DFB013EF9D16A460AA96846FFF798F80A
:102ED00069466846FFF752FB69466846FFF74EFBB6
:102EE000224669462846FFF78BF828216846FFF7F7
:102EF00055FF0DEB0100FFF751FF14A8FFF74EFF40
:102F00001EB070BD10B58CB0044602A80191FFF749
:102F10004DFF02A90846FFF731FB02A90846FFF75B
:102F20002DFB02A9019A0846FFF76AF802A9084694
:102F3000FFF724FB019A02A92046FFF761F8282138
:102F400002A8FFF72BFF0CB010BD000070B58AB0CF
:102F500002460B466D4601F12806186859682C4652
:102F600003C40833B3422546F7D1099B13214B43D1
:102F700003F180735B1669466846002405682B449C
:102F80004568013405EBA363052C4FEA636300F148
:102F90000800F3D11320434300240868034423F0BE
:102FA0007C4008604868013400EBA3604316052CA0
:102FB00020F07E40486001F10801EED1DDE90031EA
:102FC000104643EA8161FEF781F90299019BC90429
:102FD000101D41EA9311FEF779F90399029B490309
:102FE00002F1080041EA5331FEF770F90499039B9E
:102FF000890102F10C0041EAD341FEF767F9DDE9EE
:10300000053102F1100043EA4161FEF75FF90799CB
:10301000069BC90402F1140041EAD311FEF756F9E8
:103020000899079B090302F1180041EA5331FEF7A2
:103030004DF90999089B890141EA135102F11C00DD
:10304000FEF744F928216846FFF7A8FE0AB070BDD4
:103050002DE9F04F2DED028B9DB00C46642200212E
:1030600008EE100A03A8FDF723FF0DF10C0800225B
:10307000DFF8E4E0CDF80080414604F13C099246D7
:103080005EF8043B251F984628468C46002650F8DB
:10309000047F0197DCF80030019FD346E8FB073B33
:1030A0009B194BF1000681454CF8043BEFD10132EE
:1030B000092A0E6401F10401E2D10021202203A8B3
:1030C000FDF7F6FE002103AB8E461A6CDFF88CA0EC
:1030D000002090469C460646C1F108095AF8047B38
:1030E0000197DCF80020019FF346E8FB072B9219BB
:1030F00000F101004BF1000648454CF8042BEDD3DC
:103100000131082903F10403DFD11C34012100201F
:10311000009B1A6855F8043FD2439B1840EB00020D
:103120005B18009941F8043B009142F10001A5426F
:10313000EED103A90846FFF71FFC18EE100A08227B
:1031400003A9FEF7D9F8642103A8FFF727FE1DB0F5
:10315000BDEC028BBDE8F08F58ED000800E80008D8
:1031600010B588B001466846FFF7F0FE9DF80040B4
:1031700068462021FFF712FE04F00104204608B043
:1031800010BD000030B59FB004460D466846503172
:10319000FFF7B8FE6A4629460AA8FEF731FF6A46DD
:1031A00005F1280114A8FEF72BFF14A92046FFF70C
:1031B000CDFE0AA8FFF7D4FFE37F83EAC0102821E1
:1031C000E0776846FFF7EAFD0DEB0100FFF7E6FD4B
:1031D00014A8FFF7E3FD1FB030BD000010B590B09C
:1031E0001022044601466846FEF778F869462046F4
:1031F000FFF72EFF40216846FFF7D0FD10B010BD4D
:1032000010B590B00C4601466846FFF79FFE214678
:1032100008A8FFF79BFE08A96846FFF7B5FD202127
:1032200004466846FFF7BAFD0DEB0100FFF7B6FD57
:10323000601C10B010BD0000F0B595B004466846A3
:10324000FEF79CFC69462046FFF7B0FD21460AA820
:10325000FFF794F90AA96A460846FEF7D1FE6846C8
:10326000FEF784FC69460AA8FFF7CAFF69460646CE
:103270006846FEF78DFC0AA8FFF7C2FF104A054614
:1032800011466846FEF784FC69460AA8FFF7B8FFB6
:10329000214607460A4A6846FEF7B2FE45EA07029B
:1032A00069462046FEF79AFC28210DEB0100FFF746
:1032B00075FD6846FFF772FD46EA050015B0F0BDE2
:1032C000B0E800082DE9F041DFF878C09046A0B0E2
:1032D00004460E461D4600F108070CF1380263460D
:1032E00003CB9342386079609C4607F10807F6D11A
:1032F000124B86EA052253402360114B6360002283
:1033000000230021C4E91023C4E91223C4E93416C0
:103310008DB17C2201A80091FDF7CAFD2A464146E5
:103320006846FDF79FFD694604F15000FFF7FAFC7F
:103330008023C4F8D03020B0BDE8F08108C9BDF2C8
:1033400067E6096A78E8000800231A464021FFF77B
:10335000B9BF00008830FFF7F7BF00002DE9F04744
:1033600004460D4617469AB3D0F8D060764206F070
:103370007F06964228BF164632463544FFF7E2FCE8
:10338000BE1B26F07F072F444FF0000A04F15009BE
:103390004FF08008AF4213D0D4F8D030802B07D143
:1033A0002046FFF7A7FC0021FDF7E0FFC4F8D0A0FE
:1033B00029464846FFF7B6FC8035C4F8D080E9E7D7
:1033C00006F07F0239462046BDE8F047FFF7BABC59
:1033D000BDE8F0878830FFF7C1BF00002DE9F84352
:1033E000D0F8D06004460D467F2E06D83246002124
:1033F0002046FEF795FB0136F6E72046FFF77AFCFC
:103400000121FDF7B3FFD4F8D42022F00708A4F17E
:1034100008072E46A84446450CD057F8081FD7F891
:1034200004903046FDF752FF301D4946FDF74EFF30
:103430000836F0E722F00703D4F8D4209A4217D9CF
:1034400023F00700DE08204403F007024768D1009C
:1034500054F83620C1F12006A1F12000CA4007FA35
:1034600006F6324327FA00F00243EA540133E3E759
:103470002046D821BDE8F843FFF790BC8830FFF71D
:10348000ADBF000010B5B6B004466846FFF71AFF9E
:10349000DDE938126846FFF761FF21466846FFF70D
:1034A0009DFF36B010BD000007B50023CDE9001226
:1034B0001A464021FFF7E6FF03B05DF804FB000069
:1034C00003689B68184700002DE9F0411546024645
:1034D0000E4642F8043B0446013906F13F0011F85C
:1034E000017F02F8017B8142F9D16A1E04F1640177
:1034F00005F11F0012F8017F01F8017B8242F9D12A
:1035000020465B6898472368314620469B68202206
:1035100098472368294620469B68BDE8F041202251
:1035200018470000014BFFF7CFBF00BF7CED00083C
:10353000FFF7C6BF2DE9F04F8046ADF56F7D58F817
:10354000043B0546DB6816A9984705F1240A16A82E
:10355000FFF744FE05F164090822514604A8FDF76F
:10356000BDFE494630A8FEF749FB3AA826ACFEF757
:10357000FDFA30A944A8FFF701F8864A44A920467D
:10358000FEF73EFD44A93AAA0846FEF719FB20467D
:103590002146FEF707FB44A92246FEF731FD2146EE
:1035A0002046FFF749FE28B94FF0FF300DF56F7D3B
:1035B000BDE8F08F224644A92046FEF721FD2046B3
:1035C000FFF7CEFD95F88330B0EBD31F03D0214633
:1035D0002046FEF7DDFA44A830AA2146FEF710FD8A
:1035E00004A8FFF7B1F90028DED121462046FEF7F6
:1035F000CFFA44A908464EAFFEF7CAFA76AA21468A
:103600003846FFF7B9FA21469EA8FFF7EDF99EAAC2
:10361000394676A8FFF704FA76A9C6A8FFF7E4F9B9
:1036200016A902A8FFF7FCFA03A85146FFF7F8FA1B
:103630009DF80B609DF80F3020469E4238BF1E4615
:10364000FFF7C0F93A4621462046FFF795FA16AB38
:103650003246032102A8FFF7F5FA53460546052135
:1036600003A8FFF7EFFA002D834623DD6D10A0229B
:103670009EAB02FB053221462046FFF7D1F9BBF194
:10368000000F3ADD444976AB4FEA6B0B782200938A
:1036900002FB0B120CAB21462046FFF719FA013E44
:1036A000D0D226A94846FFF76DFD49464046FFF7B0
:1036B0006BFB7BE7E3D005EBD5756FF09F016D10D9
:1036C0004D439EAB591980A8FEF758FA9EAB05F101
:1036D0002801194476A8FEF751FA9EAB05F1500176
:1036E00019448AA8FEF74AFA9EAB05F178011944FD
:1036F00094A8FEF74DFA76AABDE7D0D0264A0BEB88
:10370000DB735B106FF0770503FB052530A92246BC
:103710000CA8FEF747FA76A8FEF752FA0CA905F1B5
:1037200028020846FEF76CFC76A92A460846FEF7F2
:1037300067FC76AA0CA930A8FEF734FA2046FEF7FB
:103740003FFA3AAA11461046FEF72CFA44A905F1B1
:1037500050020846FEF754FC44AA3AA90CA8FEF70A
:103760002FFA76A8FEF71EFA30AA214644A8FEF7E3
:1037700047FC76AA21462046FEF742FC30A90CAA57
:103780000846FEF73DFC76AA0CA93AA8FEF738FCDD
:1037900085E700BF20E80008D8E800080268436811
:1037A0001143016003B1184770470000024AD36813
:1037B00043F0C003D360704700440040024AD3681E
:1037C00043F0C003D360704700480040024AD3680A
:1037D00043F0C003D3607047007800402DE9F0410A
:1037E000D0F85C62F7683368DA0504469DB20DD5FF
:1037F000202383F311884FF400710430FFF7CEFFCC
:103800006FF480733360002383F31188202383F3E4
:10381000118804F1040815F02F033AD183F31188BD
:10382000380615D5290613D5202383F3118804F112
:10383000380000F04FFA00284DDA0821201DFFF76C
:10384000ADFF4FF67F733B40F360002383F3118895
:103850007A0616D56B0614D5202383F31188D4E994
:1038600013239A420AD1236C43B127F040073F0447
:103870001021201D3F0CFFF791FFF760002383F319
:103880001188D4F86422D3683BB3BDE8F0411069D5
:1038900018472B0713D015F0080F0CBF002180210B
:1038A000E80748BF41F02001AA0748BF41F04001A6
:1038B0006B0748BF41F480714046FFF76FFFAD06CC
:1038C000736805D594F860122046194000F0B2FAEA
:1038D0003568ADB29FE77060B7E7BDE8F0810000E2
:1038E00008B50348FFF77AFFBDE8084001F09EBD28
:1038F000A823002008B50348FFF770FFBDE8084083
:1039000001F094BD1026002008B50348FFF766FFBC
:10391000BDE8084001F08ABD7828002010B50E4CA3
:103920000E4A2046002100F055FA0D4BC4F85C32D7
:103930000C4C0D4A2046002100F04CFA0B4BC4F809
:103940005C320B4C0B4A0021204600F043FA0A4B34
:10395000C4F85C3210BD00BFA8230020ADB700083A
:103960000044004010260020BDB700080048004079
:1039700078280020CDB700080078004038B53A4DCF
:10398000037C002918BF0D46012B0446C0F8645281
:1039900010D1364B984244D1354B1A6C42F4003268
:1039A0001A641A6E42F400321A661B6E0B2126202E
:1039B00000F06AF8D4F85C222E492B688A424FEA5C
:1039C000530003D001F580618A424AD12A4901445B
:1039D000B5F90400B1FBF3F30028BEBF23F00700E4
:1039E00003F0070343EA4003A9889360EB8843F0A0
:1039F000400313612B8943F00103536141F40453E5
:103A000043F02C03D36001F4A05100231360B1F5FF
:103A1000806F136853680CBF7F23FF2384F86032E4
:103A200038BD164B98420FD0154B9842C2D1104B5F
:103A30001A6C42F080421A641A6E42F080421A6692
:103A40001B6E0B215220B3E7094B1A6C42F4802203
:103A50001A641A6E42F480221A661B6E0B2127200C
:103A6000A6E70849B3E700BF90ED0008A8230020AF
:103A7000003802400010014000BD01051026002062
:103A80007828002080DE800200F1604303F5614366
:103A90000901C9B283F80013012200F01F039A4004
:103AA00043099B0003F1604303F56143C3F88021A0
:103AB0001A607047F8B5154682680669AA420B4637
:103AC000816938BF8568761AB54204460BD218461C
:103AD0002A46FDF7C7F9A3692B44A361A3685B1BC2
:103AE000A3602846F8BD0CD918463246FDF7BAF94E
:103AF000AF1BE1683A463044FDF7B4F9E3683B4454
:103B0000EBE718462A46FDF7ADF9E368E5E7000064
:103B100083689342F7B51546044638BF8568D0E9F7
:103B20000460361AB5420BD22A46FDF79BF9636949
:103B30002B446361A36828465B1BA36003B0F0BD00
:103B40000DD932460191FDF78DF90199E068AF1B5F
:103B50003A463144FDF786F9E3683B44E9E72A46F3
:103B6000FDF780F9E368E4E710B50A440024C36177
:103B7000029B8460C0E90000C0E90511C1600261D8
:103B8000036210BD08B5D0E90532934201D18268C5
:103B900082B98268013282605A1C42611970D0E990
:103BA00004329A4224BFC3684361002100F0B0FF91
:103BB000002008BD4FF0FF30FBE7000070B5202368
:103BC00004460E4683F31188A568A5B1A368A269CF
:103BD000013BA360531CA36115782269934224BF63
:103BE000E368A361E3690BB120469847002383F3A0
:103BF0001188284607E03146204600F079FF00286A
:103C0000E2DA85F3118870BD2DE9F74F04460E46C0
:103C100017469846D0F81C904FF0200A8AF3118876
:103C20004FF0000B154665B12A4631462046FFF796
:103C300041FF034660B94146204600F059FF002885
:103C4000F1D0002383F31188781B03B0BDE8F08F17
:103C5000B9F1000F03D001902046C847019B8BF3B8
:103C60001188ED1A1E448AF31188DCE7C0E90511BA
:103C7000C160C3611144009B8260C0E90000016122
:103C800003627047F8B504460D461646202383F3B9
:103C90001188A768A7B1A368013BA36063695A1C98
:103CA00062611D70D4E904329A4224BFE368636103
:103CB000E3690BB120469847002080F3118807E0A4
:103CC0003146204600F014FF0028E2DA87F311881D
:103CD000F8BD0000D0E905239A4210B501D18268F1
:103CE0007AB98268013282605A1C82611C78036949
:103CF0009A4224BFC3688361002100F009FF204677
:103D000010BD4FF0FF30FBE72DE9F74F04460E469C
:103D100017469846D0F81C904FF0200A8AF3118875
:103D20004FF0000B154665B12A4631462046FFF795
:103D3000EFFE034660B94146204600F0D9FE002858
:103D4000F1D0002383F31188781B03B0BDE8F08F16
:103D5000B9F1000F03D001902046C847019B8BF3B7
:103D60001188ED1A1E448AF31188DCE70268436863
:103D70001143016003B11847704700001430FFF78A
:103D800043BF00004FF0FF331430FFF73DBF00008A
:103D90003830FFF7B9BF00004FF0FF333830FFF77E
:103DA000B3BF00001430FFF709BF00004FF0FF3130
:103DB0001430FFF703BF00003830FFF763BF000087
:103DC0004FF0FF323830FFF75DBF00000020704732
:103DD000FFF7A4BD37B515460E4A026000224260C7
:103DE000C0E902220122044602740B46009000F151
:103DF0005C014FF480721430FFF7B6FE00942B463E
:103E00004FF4807204F5AE7104F13800FFF72EFF15
:103E100003B030BDA4ED000810B52023044683F3A1
:103E20001188FFF7ABFD02232374002383F311886D
:103E300010BD000038B5C36904460D461BB9042106
:103E40000844FFF793FF294604F11400FFF79AFE98
:103E5000002806DA201D4FF48061BDE83840FFF7E6
:103E600085BF38BD026843681143016003B118473C
:103E70007047000013B5446BD4F894341A68117875
:103E8000042915D1217C022912D119791289012323
:103E90008B4013420CD101A904F14C0002F084F8CC
:103EA000D4F89444019B21790246206800F0CEF9B1
:103EB00002B010BD143002F007B800004FF0FF331D
:103EC000143002F001B800004C3002F0D9B8000004
:103ED0004FF0FF334C3002F0D3B80000143001F043
:103EE000D5BF00004FF0FF31143001F0CFBF00000C
:103EF0004C3002F0A5B800004FF0FF324C3002F019
:103F00009FB800000020704710B5D0F894341A68AC
:103F100011780429044617D1017C022914D159795A
:103F2000528901238B4013420ED1143001F068FFF7
:103F3000024648B1D4F894444FF480736179206804
:103F4000BDE8104000F070B910BD0000406BFFF7F5
:103F5000DBBF0000704700007FB5124B03600023F9
:103F60004360C0E90233012502260F4B0574044665
:103F70000290019300F18402294600964FF4807369
:103F8000143001F019FF094B0294CDE9006304F5E8
:103F900023724FF48073294604F14C0001F0E0FFD6
:103FA00004B070BDCCED00084DBF000875BE000820
:103FB0000B68202282F311880A7903EB8202906158
:103FC0004A79093243F822008A7912B103EB82035D
:103FD000986102230374C0F89414002383F31188BA
:103FE0007047000038B5037F044613B190F8543091
:103FF000ABB9201D01250221FFF734FF04F11400A5
:1040000025776FF0010100F08FFD84F8545004F122
:104010004C006FF00101BDE8384000F085BD38BDAF
:1040200010B5012104460430FFF71CFF002323775D
:1040300084F8543010BD000038B504460025143013
:1040400001F0D2FE04F14C00257701F0A1FF201D04
:1040500084F854500121FFF705FF2046BDE83840A1
:10406000FFF752BF90F8443003F06003202B07D1D4
:1040700090F84520212A4FF0000303D81F2A06D8C4
:1040800000207047222AFBD1C0E90E3303E0034A27
:1040900082630722C263036401207047112200205B
:1040A00037B5D0F894341A681178042904461AD127
:1040B000017C022917D11979128901238B401342FF
:1040C00011D100F14C05284602F022F858B101A99F
:1040D000284601F069FFD4F89444019B21790246F7
:1040E000206800F0B3F803B030BD0000F0B500EB7D
:1040F000810385B09E6904460D46FEB1202383F3FB
:10410000118804EB8507301D0821FFF7ABFEFB6823
:104110005B691B6806F14C001BB1019001F052FF76
:10412000019803A901F040FF024648B1039B2946CC
:10413000204600F08BF8002383F3118805B0F0BD12
:10414000FB685A691268002AF5D01B8A013B1340AC
:10415000F1D104F14402EAE7093138B550F82140C1
:10416000DCB1202383F31188D4F8942413685279A6
:1041700003EB8203DB689B695D6845B1042160182D
:10418000FFF770FE294604F1140001F043FE2046BB
:10419000FFF7BAFE002383F3118838BD7047000093
:1041A00001F006BA012303700023C0E90133C361A3
:1041B00083620362C36243620363704738B5044697
:1041C000202383F311880025C0E90355C0E9055574
:1041D000416001F0FDF90223237085F3118838BD99
:1041E00070B500EB810305465069DA600E4614464F
:1041F00018B110220021FCF75BFEA06918B1102253
:104200000021FCF755FE31462846BDE8704001F01C
:10421000A9BA0000826802F0011282600022C0E99F
:104220000422826101F02ABBF0B400EB81044789CB
:10423000E4680125A4698D403D4345812360002346
:10424000A2606360F0BC01F045BB0000F0B400EB7D
:1042500081040789E468012564698D403D43058137
:1042600023600023A2606360F0BC01F0BFBB0000CC
:1042700070B50223002504460370C0E90255C0E969
:104280000455C564856180F8345001F007FA63680D
:104290001B6823B129462046BDE87040184770BD11
:1042A000037880F850300523037043681B6810B50D
:1042B00004460BB1042198470023A36010BD000001
:1042C00090F85020436802701B680BB10521184715
:1042D0007047000070B590F83430044613B10023E5
:1042E00080F8343004F14402204601F0E9FA6368B2
:1042F0009B68B3B994F8443013F0600535D00021C1
:10430000204601F03BFD0021204601F02DFD6368B1
:104310001B6813B1062120469847062384F83430E1
:1043200070BD204698470028E4D0B4F84A30E26BCC
:104330009A4288BFE36394F94430E56B002B4FF059
:10434000200380F20381002D00F0F280092284F81E
:10435000342083F311880021D4E90E232046FFF78F
:1043600075FF002383F31188DAE794F8452003F002
:104370007F0343EA022340F20232934200F0C580F9
:1043800021D8B3F5807F48D00DD8012B3FD0022B28
:1043900000F09380002BB2D104F14C02A263022200
:1043A000E2632364C1E7B3F5817F00F09B80B3F53E
:1043B000407FA4D194F84630012BA0D1B4F84C3002
:1043C00043F0020332E0B3F5006F4DD017D8B3F5D8
:1043D000A06F31D0A3F5C063012B90D8636894F827
:1043E00046205E6894F84710B4F848302046B0473D
:1043F000002884D04368A3630368E3631AE0B3F53D
:10440000106F36D040F6024293427FF478AF5C4B97
:10441000A3630223E3630023C3E794F84630012B30
:104420007FF46DAFB4F84C3023F00203C4E90E55AD
:10443000A4F84C30256478E7B4F84430B3F5A06FA5
:104440000ED194F8463084F84E30204601F07EF9C3
:1044500063681B6813B1012120469847032323702A
:104460000023C4E90E339CE704F14F03A363012347
:10447000C3E72378042B10D1202383F3118820462F
:10448000FFF7C8FE85F311880321636884F84F5055
:1044900021701B680BB12046984794F84630002BDA
:1044A000DED084F84F300423237063681B68002B30
:1044B000D6D0022120469847D2E794F848301D060E
:1044C00003F00F0120460AD501F0ECF9012804D0D1
:1044D00002287FF414AF2B4B9AE72B4B98E701F09F
:1044E000D3F9F3E794F84630002B7FF408AF94F843
:1044F000483013F00F01B3D01A06204602D501F060
:1045000051FCADE701F044FCAAE794F84630002BDB
:104510007FF4F5AE94F8483013F00F01A0D01B06DD
:10452000204602D501F02AFC9AE701F01DFC97E72E
:10453000142284F8342083F311882B462A46294616
:104540002046FFF771FE85F31188E9E65DB115227B
:1045500084F8342083F311880021D4E90E23204607
:10456000FFF762FEFDE60B2284F8342083F3118806
:104570002B462A4629462046FFF768FEE3E700BFA0
:10458000FCED0008F4ED0008F8ED000838B590F8EF
:1045900034300446002B3ED0063BDAB20F2A34D822
:1045A0000F2B32D8DFE803F03731310822323131B6
:1045B0003131313131313737C56BB0F84A309D4236
:1045C00014D2C3681B8AB5FBF3F203FB12556DB915
:1045D000202383F311882B462A462946FFF736FE0F
:1045E00085F311880A2384F834300EE0142384F80C
:1045F0003430202383F3118800231A4619462046BD
:10460000FFF712FE002383F3118838BD036C03B15A
:1046100098470023E7E70021204601F0AFFB002187
:10462000204601F0A1FB63681B6813B106212046F8
:1046300098470623D7E7000010B590F83430142BC4
:10464000044629D017D8062B05D001D81BB110BDC0
:10465000093B022BFBD80021204601F08FFB0021F3
:10466000204601F081FB63681B6813B106212046D8
:104670009847062319E0152BE9D10B2380F8343035
:10468000202383F3118800231A461946FFF7DEFD25
:10469000002383F31188DAE7C3689B695B68002B0A
:1046A000D5D1036C03B19847002384F83430CEE7AA
:1046B0000448054B03600023C0E9013301210C309D
:1046C00000F044B9E02A0020C5E10008CB1D23F02A
:1046D0000703591A083A521A10B4D2080024C0E944
:1046E0000043846001211C605A605DF8044B0C306B
:1046F00000F02CB92DE9F84F344E002818BF0646BB
:10470000082A38BF082206F10C089146CD1D404604
:104710000F46ED0800F036F9341D09F10701C9F123
:10472000000E224624686CB9404600F035F9336823
:10473000BBB308224946E8009847044688B340E9DD
:1047400002672EE0D4F804A004EB010C0CEA0E0C76
:104750000AF10100ACF1080304EBC0009842E0D973
:10476000A0EB0C0CB5EBEC0F4FEAEC0BD9D89C424C
:104770001AD204F108029A1AD210AB45626009D924
:10478000691C03EBC102ED4320685D44556043F8AA
:10479000310022601C465F60404644F8086B00F020
:1047A000FBF82046BDE8F88FAA45216802D11160C8
:1047B0002346EFE7013504EBC50344F8351003F158
:1047C0000801401AC01058601360F1E7E02A002089
:1047D000024B0022C3E900339A607047F82A002098
:1047E000002303748268054B1B6899689142FBD2D1
:1047F0005A6803604260106058607047F82A0020D1
:1048000008B5202383F31188027C0023052A06D8EB
:10481000DFE802F00B050503120E426913604FF04A
:10482000FF334361FFF7DCFF002383F3118808BDEA
:104830004269936801339360D0E9003213605A6093
:10484000EDE70000002303748268054B1B6899683C
:104850009142FBD85A68036042601060586070470C
:10486000F82A0020054B19690874186802681A6054
:104870005360186101230374FBF7ECBDF82A002094
:1048800030B54B1C0B4D87B0044610D02B690A4A3B
:1048900001A800F065F92046FFF7E4FF049B13B17F
:1048A00001A800F099F92B69586907B030BDFFF7EE
:1048B000D9FFF8E7F82A002001C8000838B50C4DE8
:1048C00041612B6981689A689142044603D8BDE82A
:1048D0003840FFF785BF1846FFF7B4FF01232C616E
:1048E000014623742046BDE83840FBF7B3BD00BF46
:1048F000F82A0020044B1A681B6990689B6898424C
:1049000094BF002001207047F82A002010B5084C01
:10491000236820691A6822605460012223611A7496
:10492000FFF790FF01462069BDE81040FBF792BDFC
:10493000F82A002008B5FFF7DDFF18B1BDE80840F0
:10494000FFF7E4BF08BD0000FFF7E0BFC0E90000CB
:10495000816070478368013B002B10B583600DDADE
:10496000074C42682369586118605A6013604360BD
:104970000520FFF777FF2369586910BD0020FCE789
:10498000F82A002008B5202383F31188FFF7E2FFFF
:10499000002383F3118808BD08B5202383F3118811
:1049A00083680133002B836007DC03681A680260A8
:1049B000002150601846FFF781FF002383F3118820
:1049C00008BD0000FEE7000010B50E4CFFF700FF29
:1049D00000F0B8F801F0D8FBFFF76AFE0A49802220
:1049E000204600F03BF8012344F8180C037400F053
:1049F000F9FC002383F3118862B60448BDE8104037
:104A000000F04CB8202B002000EE000810EE00084B
:104A100000F01CB9EFF3118020B9EFF305832022D9
:104A200082F311887047000010B530B9EFF30584A8
:104A3000C4F3080414B180F3118810BDFFF77AFFA6
:104A400084F31188F9E70000034A516853685B1A40
:104A50009842FBD8704700BF001000E0826002223D
:104A6000028270478368A3F17C0243F80C2C026930
:104A700043F83C2C426943F8382C074A43F81C2C75
:104A8000C26843F8102C022203F8082C002203F815
:104A9000072CA3F1180070476D84000810B520237F
:104AA00083F31188FFF7DEFF00210446FFF706FFBE
:104AB000002383F31188204610BD0000024B1B69C0
:104AC00058610F20FFF7CEBEF82A0020202383F381
:104AD0001188FFF7F3BF000008B50146202383F3D8
:104AE00011880820FFF7CCFE002383F3118808BD4E
:104AF00049B1064B42681B6918605A6013604360F5
:104B00000420FFF7BDBE4FF0FF307047F82A0020A9
:104B10000368984206D01A680260506059611846CE
:104B2000FFF75EBE7047000038B504460D462068AA
:104B3000844200D138BD036823605C604561FFF7A3
:104B40004FFEF4E7054B03F11402C3E905224FF0D1
:104B5000FF310022C3E90712704700BFF82A002086
:104B600070B51C4EC0E9032305460C4601F006FB58
:104B7000334653F8142F9A420DD13062C5E901240F
:104B80002A600A2C2CBF00190A30C6E90555BDE879
:104B9000704001F0DDBA316A431AE31838BF1C4691
:104BA0009368A34202D9081901F0E2FA73699A687E
:104BB00094420CD85A68AC602B606A6015609A68A1
:104BC0005D60121B9A604FF0FF33F36170BD1B688C
:104BD000A41AECE7F82A002038B51B4C6369984208
:104BE0000DD0D0E9003213605A6000228168C260A3
:104BF0009A680A449A604FF0FF33E36138BD224659
:104C0000036842F8143F002193425A60C16003D107
:104C1000BDE8384001F0A6BA9A688168256A0A445E
:104C20009A6001F0ABFA63699A68411B8A42E5D940
:104C3000AB181D1A092D206A98BF01F10A02BDE8C0
:104C40003840104401F094BAF82A00202DE9F041D0
:104C5000184C002704F11406656901F08FFA236AE5
:104C6000AA68C11A8A4215D813442362D5E90032D2
:104C700013605A606369D5F80C80EF60B34201D1CC
:104C800001F070FA87F311882869C047202383F365
:104C90001188E1E76169B14209D013441B1ABDE8EC
:104CA000F0410A2B2CBFC0180A3001F061BABDE8F0
:104CB000F08100BFF82A002000207047FEE70000C6
:104CC000704700004FF0FF307047000002290CD001
:104CD000032904D00129074818BF00207047032A80
:104CE00005D8054800EBC200704704487047002013
:104CF000704700BF00EF000820220020B4EE00083B
:104D000070B59AB00546084601A9144600F0C2F8ED
:104D100001A8FCF7C5F8431C5B00C5E9003400227C
:104D2000237003236370C6B201AB02341046D1B2C4
:104D30008E4204F1020401D81AB070BD13F8011BB1
:104D400004F8021C04F8010C0132F0E708B5202336
:104D500083F311880348FFF7A3F9002383F3118835
:104D600008BD00BFB02C002090F8443003F01F02B3
:104D7000012A07D190F845200B2A03D10023C0E96E
:104D80000E3315E003F06003202B08D1B0F8483053
:104D90002BB990F84520212A03D81F2A04D8FFF701
:104DA00061B9222AEBD0FAE7034A82630722C26381
:104DB00003640120704700BF1822002007B50529B1
:104DC00017D8DFE801F0191603191920202383F3FF
:104DD0001188104A01900121FFF702FA01980E4A4A
:104DE0000221FFF7FDF90D48FFF726F9002383F3B1
:104DF000118803B05DF804FB202383F31188074872
:104E0000FFF7F0F8F2E7202383F311880348FFF758
:104E100007F9EBE754EE000878EE0008B02C00200C
:104E200038B50C4D0C4C0D492A4604F10800FFF72B
:104E300067FF05F1CA0204F110000949FFF760FF9E
:104E400005F5CA7204F118000649BDE83840FFF7BD
:104E500057BF00BF783100202022002028EE000834
:104E600035EE00084BEE000870B5044608460D46C6
:104E7000FCF716F8C6B22046013403780BB9184681
:104E800070BD32462946FBF7F7FF0028F3D1012019
:104E9000F6E700002DE9F84F05460C46FCF700F850
:104EA0002B49C6B22846FFF7DFFF08B10236F6B23B
:104EB00028492846FFF7D8FF08B11036F6B2632E0E
:104EC0000DD8DFF88C80DFF88C90234FDFF890A0AE
:104ED000DFF890B02E7846B92670BDE8F88F2946E5
:104EE0002046BDE8F84F01F03FBC252E2BD107220C
:104EF00041462846FBF7C0FF58B9DBF80030236075
:104F0000DBF8043063609BF80830237207350934FE
:104F1000E0E7082249462846FBF7AEFF98B90F4B59
:104F2000A21C197809090232C95D02F8041C13F8A1
:104F3000011B01F00F015345C95D02F8031CF0D1BC
:104F400018340835C6E704F8016B0135C2E700BF25
:104F500020EF00084BEE000832EF0008107AFF1F28
:104F60001C7AFF1F28EF0008BFF34F8F024AD36857
:104F7000DB03FCD4704700BF003C024008B5094B7E
:104F80001B7873B9FFF7F0FF074B1A69002ABFBF00
:104F9000064A5A6002F188325A601A6822F4806226
:104FA0001A6008BDD6330020003C0240230167454B
:104FB00008B50B4B1B7893B9FFF7D6FF094B1A695D
:104FC00042F000421A611A6842F480521A601A686C
:104FD00022F480521A601A6842F480621A6008BD96
:104FE000D6330020003C02401728F0B516D80C4CF0
:104FF0000C4923787BB90C4D0E4618234FF0006204
:1050000055F8047B46F8042B013B13F0FF033A44A8
:10501000F6D10123237051F82000F0BD0020FCE7F9
:1050200038340020D833002044EF0008014B53F8F7
:105030002000704744EF000818207047172810B56B
:10504000044601D9002010BDFFF7CEFF064B53F8F0
:1050500024301844C21A0BB90120F4E71268013257
:10506000F0D1043BF6E700BF44EF0008172870B505
:1050700004462FD8FFF7CEFC1749FFF775FFFFF75F
:105080007DFFF323CB600C23B4FBF3F203FB12454B
:10509000D30143EAC503DBB243F4007343F00203D8
:1050A0000B610B6943F480330B6106462046FFF722
:1050B0005BFFFFF799FF094B53F8241000F054F9F8
:1050C0003046FFF775FFFFF7AFFC2046BDE87040A4
:1050D000FFF7B4BF002070BD003C024044EF000861
:1050E00012F001032DE9F04105460E4614464BD15E
:1050F0008218B2F1026F61D8314B1B6813F00103C3
:105100005CD0304FFFF786FCFFF738FFF323FB60DE
:10511000FFF72AFF314640F20128032C18D824F06B
:105120000104284E0C446D1A40F20118A142336963
:1051300005EB01072AD123F001033361FFF738FFA4
:10514000FFF772FC0120BDE8F081043C0435E4E780
:10515000AB07E4D13B6923F440733B613B6943EA0D
:1051600008033B6151F8046B2E60BFF34F8FFFF7CC
:10517000FBFE2B689E42E8D03B6923F001033B61B4
:10518000FFF716FFFFF750FC0020DCE723F4407325
:105190003361336943EA080333610B883B80BFF313
:1051A0004F8FFFF7E1FE3F8831F8023BBFB2BB42B1
:1051B000BCD0336923F001033361E1E71846C2E74D
:1051C00000380240003C0240084908B50B7828B17D
:1051D0001BB9FFF7D3FE01230B7008BD002BFCD0D9
:1051E000BDE808400870FFF7E3BE00BFD6330020DB
:1051F000F8B50E460546002839D011F0050728D02D
:10520000073525F00705012E25D0F30706D41948E8
:1052100008222946FFF76EFA044620BB67B91548F5
:1052200008222946FFF766FA0446E0B90822294613
:10523000FFF760FA0446B0B90F4808222946FFF785
:1052400059FA044618B12A460021FBF731FE2046E0
:10525000F8BD0029D7D1082229460020FFF74AFAD5
:1052600004460028D1D02A4600212046EDE7044616
:10527000EDE700BF6C3400203C3400200121FFF733
:10528000B7BF000038B50E484FF480324FF0805160
:10529000FFF71CFA37254FF4C0542046FFF7EEFF06
:1052A000014628B122460748BDE83840FFF70EBA4C
:1052B000C4EBC404013D4FEAD404EED138BD00BFB5
:1052C0006C3400203C34002010B50244064BD2B2AE
:1052D000904200D110BD441C00B253F8200041F8A8
:1052E000040BE0B2F4E700BF502800400F4B30B58C
:1052F0001C6F240407D41C6F44F400741C671C6FDB
:1053000044F400441C670A4C236843F48073236010
:105310000244084BD2B2904200D130BD441C00B2CE
:1053200051F8045B43F82050E0B2F4E70038024043
:10533000007000405028004007B5012201A900205C
:10534000FFF7C2FF019803B05DF804FB13B50446F4
:10535000FFF7F2FFA04205D0012201A9002001942D
:10536000FFF7C4FF02B010BD70470000094B5A8818
:10537000B2F5805F10460BD022F0020341F2010229
:10538000934205D041F20703C31A5842584170476F
:1053900001207047002004E0034B1A681AB9034A41
:1053A000D2F874281A60704784340020003002401C
:1053B00008B5FFF7F1FF024B1868C0F3407008BD55
:1053C00084340020EFF3098305494A6B22F001027F
:1053D0004A63683383F30988002383F31188704795
:1053E00000EF00E0202080F3118862B60C4B0D4ADC
:1053F000D96821F4E0610904090C0A43DA60D3F8A2
:10540000FC20094942F08072C3F8FC200A6842F08F
:1054100001020A601022DA7783F82200704700BF89
:1054200000ED00E00003FA05001000E010B52023B5
:1054300083F311880E4B5B6813F4006314D0F1EE14
:10544000103AEFF30984683C4FF08073E361094B35
:10545000DB6B236684F30988FFF74CFA10B1064B27
:10546000A36110BD054BFBE783F31188F9E700BF8B
:1054700000ED00E000EF00E07F8400088284000877
:1054800070470000FEE700000A4B0B480B4A9042B1
:105490000BD30B4BDA1C121AC11E22F003028B42F3
:1054A00038BF00220021FBF703BD53F8041B40F86E
:1054B000041BECE710F10008883500208835002037
:1054C000883500207047000070B5D0E915439E680C
:1054D00000224FF0FF3504EB42135101D3F80009CD
:1054E0000028BEBFD3F8000940F08040C3F800098F
:1054F000D3F8000B0028BEBFD3F8000B40F080406B
:10550000C3F8000B013263189642C3F80859C3F878
:10551000085BE0D24FF00113C4F81C3870BD0000E6
:105520001D4B03EB80022DE9F043D2F80CC05D6DFA
:10553000DCF81420461CD2F800E005EB063605EB3B
:105540004018516871450AD3D5F83438012202FA5F
:1055500000F023EA0000C5F83408BDE8F083BCF889
:105560001040AEEB0103A34228BF2346D8F81849E8
:10557000A4B2B3EB840FF0D89468A4F1040959F8ED
:10558000047F3760A4EB09071F44042FF7D81C449D
:105590000B4494605360D4E788340020890141F0C3
:1055A0002001016103699B06FCD41220FFF74CBA6D
:1055B00010B5054C2046FEF7F5FD4FF0A04363659E
:1055C000024BA36510BD00BF88340020C8EF00085F
:1055D00070B50378012B054650D12A4B446D984293
:1055E0001BD1294B5A6B42F080025A635A6D42F02C
:1055F00080025A655A6D5A6942F080025A615A69AE
:1056000022F080025A610E2143205B69FEF73CFACA
:105610001E4BE3601E4BC4F800380023C4F8003E64
:10562000C02323606E6D4FF45023A3633369002BB6
:10563000FCDA012333610C20FFF706FA3369DB073C
:10564000FCD41220FFF700FA3369002BFCDA0026A5
:10565000A6602846FFF738FF6B68C4F81068DB685F
:10566000C4F81468C4F81C684BB90A4BA3614FF026
:10567000FF336361A36843F00103A36070BD064B71
:10568000F4E700BF88340020003802404014004096
:1056900003002002003C30C0083C30C0F8B5446D27
:1056A000054600212046FFF779FFA96D00234FF042
:1056B00001128F68C4F834384FF00066C4F81C2813
:1056C0004FF0FF3004EB431201339F42C2F80069F0
:1056D000C2F8006BC2F80809C2F8080BF2D20B68D6
:1056E0006A6DEB65636210231361166916F010068C
:1056F000FBD11220FFF7A8F9D4F8003823F4FE6399
:10570000C4F80038A36943F4402343F01003A361B5
:105710000923C4F81038C4F814380A4BEB604FF072
:10572000C043C4F8103B084BC4F8003BC4F81069F0
:10573000C4F80039EB6D03F1100243F48013EA65FD
:10574000A362F8BDA4EF000840800010426D90F8FD
:105750004E10D2F8003823F4FE6343EA0113C2F876
:10576000003870472DE9F84300EB8103456DDA6896
:10577000166806F00306731E022B05EB41130C4658
:1057800080460FFA81F94FEA41104FF00001C3F84B
:10579000101B4FF0010104F1100398BFB60401FA89
:1057A00003F391698EBF334E06F1805606F500462D
:1057B00000293AD0578A04F15801490137436F5004
:1057C000D5F81C180B43C5F81C382B180021C3F85A
:1057D000101953690127611EA7409BB3138A928B4E
:1057E0009B08012A88BF5343D8F85C20981842EAE6
:1057F000034301F1400205EB8202C8F85C00214638
:1058000053602846FFF7CAFE08EB8900C3681B8A6D
:1058100043EA8453483464011E432E51D5F81C38A2
:105820001F43C5F81C78BDE8F88305EB4917D7F886
:10583000001B21F40041C7F8001BD5F81C1821EA11
:105840000303C0E704F13F0305EB83030A4A5A60F0
:1058500028462146FFF7A2FE05EB4910D0F8003993
:1058600023F40043C0F80039D5F81C3823EA0707B1
:10587000D7E700BF0080001000040002826D1268AC
:10588000C265FFF721BE00005831436D49015B58E6
:1058900013F4004004D013F4001F0CBF02200120B9
:1058A000704700004831436D49015B5813F40040D4
:1058B00004D013F4001F0CBF022001207047000029
:1058C00000EB8101CB68196A0B6813604B68536069
:1058D0007047000000EB810330B5DD68AA691368EA
:1058E000D36019B9402B84BF402313606B8A1468BE
:1058F000426D1C44013CB4FBF3F46343033323F0D7
:10590000030302EB411043EAC44343F0C043C0F831
:10591000103B2B6803F00303012B09B20ED1D2F820
:10592000083802EB411013F4807FD0F8003B14BF1D
:1059300043F0805343F00053C0F8003B02EB4112A8
:10594000D2F8003B43F00443C2F8003B30BD0000F6
:105950002DE9F041244D6E6D06EB40130446D3F85B
:10596000087BC3F8087B38070AD5D6F8143819071E
:1059700006D505EB84032146DB6828465B6898471B
:10598000FA071FD5D6F81438DB071BD505EB8403BF
:10599000D968CCB98B69488A5A68B2FBF0F600FB2B
:1059A00016228AB91868DA6890420DD2121AC3E931
:1059B0000024202383F311880B482146FFF78AFF38
:1059C00084F31188BDE8F081012303FA04F26B89A6
:1059D00023EA02036B81CB68002BF3D021460248F7
:1059E000BDE8F041184700BF8834002000EB810378
:1059F00070B5DD68436D6C692668E6604A0156BB88
:105A00001A444FF40020C2F810092A6802F0030279
:105A1000012A0AB20ED1D3F8080803EB421410F49D
:105A2000807FD4F8000914BF40F0805040F000504F
:105A3000C4F8000903EB4212D2F8000940F0044018
:105A4000C2F80009D3F83408012202FA01F1014337
:105A5000C3F8341870BD19B9402E84BF40202060AF
:105A600020682E8A8419013CB4FBF6F440EAC44055
:105A700040F000501A44C6E7F8B504461E48456D8C
:105A800005EB4413D3F80869C3F80869F10717D583
:105A9000D5F81038DA0713D500EB8403D9684B69C1
:105AA0001F68DA68974218D2D21B00271A605F601D
:105AB000202383F311882146FFF798FF87F311888D
:105AC000330617D5D5F834280123A340134211D04B
:105AD0002046BDE8F840FFF723BD012303FA04F296
